:0E0174000C084C695A686F6E676E616E210050
:1000FB0012015B7F801200C6E4F51474082514F816
:10010B00E6FF12008F0514E514C3940B40ED80FE3F
:10011B00E4FDFCC3ED9FEC9E5015E4FAFB0BBB001A
:0F012B00010AEB647B4A70F50DBD00010C80E406
:01013A0022A2
:10013B00E4FDFCC3ED9FEC9E5015E4FAFB0BBB00FA
:0F014B00010AEB647B4A70F50DBD00010C80E4E6
:01015A002282
:1000C6008F15C2A6C2A58515807F017E0012011B71
:1000D600D2A77F057E0012011BC2A7E515C454F006
:1000E600F5807F017E0012011BD2A77F057E0012DC
:0500F600011BC2A7225E
:10008F008F15C2A7D2A6C2A58515807F017E00124B
:10009F00011BD2A77F057E0012011BC2A7E515C465
:1000AF0054F0F5807F017E0012011BD2A77F057EE1
:0700BF000012011BC2A72281
:10015B007F321200C67F281200C67F0C1200C67FAA
:09016B00061200C67F010200C665
:03000000020003F8
:0C000300787FE4F6D8FD75811502004AF4
:10000F000200FBE493A3F8E493A34003F68001F20C
:10001F0008DFF48029E493A3F85407240CC8C333F2
:10002F00C4540F4420C8834004F456800146F6DFC1
:10003F00E4800B0102040810204080900174E47EDC
:10004F00019360BCA3FF543F30E509541FFEE493B6
:10005F00A360010ECF54C025E060A840B8E493A37D
:10006F00FAE493A3F8E493A3C8C582C8CAC583CAA8
:10007F00F0A3C8C582C8CAC583CADFE9DEE780BE60
:01018200007C
:00000001FF
