:05012B0012008F80FBB3
:0801220006083FBF06DB4F3F5A
:10008F00E4F50EE50EB40800504D9000A0F82828B6
:10009F00730200B80200BC0200C40200C80200D004
:1000AF000200D40200DC0200E0D2A28002C2A2D27F
:1000BF00A3D2A48022D2A28002C2A2C2A3D2A480C1
:1000CF0016D2A28002C2A2D2A3C2A4800AD2A28058
:1000DF0002C2A2C2A3C2A47408250EF8E6F5807F5F
:1000EF00027E00120102E4F580050EE50EC39406B0
:0200FF0040912E
:0101010022DB
:10010200E4FDFCC3ED9FEC9E5015E4FAFB0BBB0033
:0F011200010AEB647B4A70F50DBD00010C80E41F
:0101210022BB
:03000000020003F8
:0C000300787FE4F6D8FD75810E02004AFB
:10000F0002012BE493A3F8E493A34003F68001F2DB
:10001F0008DFF48029E493A3F85407240CC8C333F2
:10002F00C4540F4420C8834004F456800146F6DFC1
:10003F00E4800B0102040810204080900122E47E2E
:10004F00019360BCA3FF543F30E509541FFEE493B6
:10005F00A360010ECF54C025E060A840B8E493A37D
:10006F00FAE493A3F8E493A3C8C582C8CAC583CAA8
:10007F00F0A3C8C582C8CAC583CADFE9DEE780BE60
:01012A0000D4
:00000001FF
