:1002CA001203D11200031203EA1202811200CC12A5
:1002DA0003F91202217F8012033AE51A75F00A84A3
:1002EA002430FF120303E51A75F00A84E5F024307E
:0902FA00FF120303851AA080FE27
:10039100E4FDFCC3ED9FEC9E5015E4FAFB0BBB00A2
:0F03A100010AEB647B4A70F50DBD00010C80E48E
:0103B000222A
:1003B100E4FDFCC3ED9FEC9E5015E4FAFB0BBB0082
:0F03C100010AEB647B4A70F50DBD00010C80E46E
:0103D000220A
:10033A008F1DC2A6C2A5851D807F017E0012039172
:10034A00D2A77F057E00120391C2A7E51DC454F00F
:10035A00F5807F017E00120391D2A77F057E0012ED
:05036A000391C2A7226F
:100303008F1DC2A7D2A6C2A5851D807F017E0012C4
:100313000391D2A77F057E00120391C2A7E51DC4F6
:1003230054F0F5807F017E00120391D2A77F057EF2
:0703330000120391C2A72292
:1003D1007F3212033A7F2812033A7F0C12033A7FCD
:0903E1000612033A7F0102033AFF
:0F036F00011800011900011B00011C00011A00F8
:10000300E4F518E51860030200CBD297D296D29597
:10001300D294D293D292D291D290C29620930C7F53
:100023000AFE1203B120930375180720920D7F0A6D
:100033007E001203B120920375180820910D7F0AE8
:100043007E001203B1209103751809D296C2952040
:10005300930D7F0A7E001203B120930375180420C9
:10006300920D7F0A7E001203B120920375180520BA
:10007300910D7F0A7E001203B1209103751806D2F9
:1000830095C29420930D7F0A7E001203B12093033F
:1000930075180120920D7F0A7E001203B12092038E
:1000A30075180220910D7F0A7E001203B12091037F
:1000B300751803D294D297D296D295D294D293D272
:0900C30092D291D29002000622B3
:10028100E4F51BE51B704120B10C7F0AFE1203B19E
:1002910020B103751B0120B00D7F0A7E001203B14E
:1002A10020B003751B0220B20D7F0A7E001203B13C
:1002B10020B203751B0320B3CA7F0A7E001203B16B
:0902C10020B3C0751B0480BB22B0
:1000CC00E4F519E5196003020194D297D296D29502
:1000DC00D294D293D292D291D290C29620930C7F8A
:1000EC000AFE1203B120930375190720920D7F0AA3
:1000FC007E001203B120920375190820910D7F0A1E
:10010C007E001203B1209103751909D296C2952075
:10011C00930D7F0A7E001203B120930375190420FE
:10012C00920D7F0A7E001203B120920375190520EF
:10013C00910D7F0A7E001203B1209103751906D22E
:10014C0095C29420930D7F0A7E001203B120930375
:10015C0075190120920D7F0A7E001203B1209203C3
:10016C0075190220910D7F0A7E001203B1209103B4
:10017C00751903D294D297D296D295D294D293D2A7
:09018C0092D291D2900200CF2220
:10022100E4F51CE51C7058D297D296D295D294D29F
:1002310093D292D291D290C29420903F7F0AFE1223
:1002410003B1209036751C01E51B24FE6012146079
:100251001814601F24037023E5182519F51A801B53
:10026100C3E5189519F51A8012E5188519F0A4F55A
:100271001A8008E5188519F084F51AC29480A42221
:10037E0010083F065B4F666D7D077F6F777C395E99
:02038E00797183
:0F03EA00D2A2D2A3D2A474082518F8E6F5802277
:0F03F900D2A2D2A3D2A474082519F8E6F5802267
:0300000002019565
:0C019500787FE4F6D8FD75811D0201DCC6
:1001A1000202CAE493A3F8E493A34003F68001F2A8
:1001B10008DFF48029E493A3F85407240CC8C3335F
:1001C100C4540F4420C8834004F456800146F6DF2E
:1001D100E4800B010204081020408090036FE47E4C
:1001E100019360BCA3FF543F30E509541FFEE49323
:1001F100A360010ECF54C025E060A840B8E493A3EA
:10020100FAE493A3F8E493A3C8C582C8CAC583CA14
:10021100F0A3C8C582C8CAC583CADFE9DEE780BECC
:01039000006C
:00000001FF
