:080081007FEA7E13DEFEDFFCC6
:010089002254
:10000300D297D296D293D292C293209708120081AC
:10001300209702B2A0209608120081209602B2A473
:10002300D293C292209708120081209702B2A12096
:100033009608120081209602B2A5D292C29120970F
:1000430008120081209702B2A22096081200812094
:100053009602B2A6D291C2902097081200812097EF
:1000630002B2A3209608120081209602B2A7D29072
:02007300808E7D
:0300000002007586
:0C007500787FE4F6D8FD758107020003D7
:00000001FF
