:0500F70012007C80FBFB
:10007C00C297D292D293C29720930C7F647E0012C7
:10008C0000C4209302B2A520920C7F647E00120063
:10009C00C4209202B2A620910C7F647E001200C490
:1000AC00209102B2A720900D7F647E001200C42024
:0800BC009003120003D2972209
:0700F0003F065B4F666D7DCA
:10000300D2A2D2A3D2A420A50B20A60820A7059094
:1000130000F6806030A50B20A60820A7059000F508
:10002300805220A50B30A60820A7059000F4804439
:1000330020A50B20A60830A7059000F3803630A535
:100043000B30A60820A7059000F3802820A50B30CD
:10005300A60830A7059000F1801A30A50B20A6084A
:1000630030A7059000F2800C30A50D30A60A30A70A
:08007300079000F0E493F58012
:01007B002262
:1000C400E4FDFCC3ED9FEC9E5015E4FAFB0BBB0072
:0F00D400010AEB647B4A70F50DBD00010C80E45E
:0100E30022FA
:030000000200E417
:0C00E400787FE4F6D8FD7581070200F774
:00000001FF
