:100176000B08455120455120455144520009132092
:08018600204354524C2B3600BB
:10008F0012018F7F80120101E4F51C7408251CF802
:10009F00E6FF1200CA051CE51CC3940A40ED7FC0A1
:1000AF00120101E4F51C7413251CF8E6FF1200CAB7
:0B00BF00051CE51CC3940840ED80FE0A
:10013600E4FDFCC3ED9FEC9E5015E4FAFB0BBB00FF
:0F014600010AEB647B4A70F50DBD00010C80E4EB
:010155002287
:10015600E4FDFCC3ED9FEC9E5015E4FAFB0BBB00DF
:0F016600010AEB647B4A70F50DBD00010C80E4CB
:010175002267
:100101008F1DC2A6C2A5851D807F017E001201360A
:10011100D2A77F057E00120136C2A7E51DC454F0A7
:10012100F5807F017E00120136D2A77F057E001285
:050131000136C2A72207
:1000CA008F1DC2A7D2A6C2A5851D807F017E001200
:1000DA000136D2A77F057E00120136C2A7E51DC4EC
:1000EA0054F0F5807F017E00120136D2A77F057E8B
:0700FA0000120136C2A7222B
:10018F007F321201017F281201017F0C1201017FC2
:09019F00061201017F01020101B9
:03000000020003F8
:0C000300787FE4F6D8FD75811D02004AEC
:10000F0002008FE493A3F8E493A34003F68001F278
:10001F0008DFF48029E493A3F85407240CC8C333F2
:10002F00C4540F4420C8834004F456800146F6DFC1
:10003F00E4800B0102040810204080900176E47EDA
:10004F00019360BCA3FF543F30E509541FFEE493B6
:10005F00A360010ECF54C025E060A840B8E493A37D
:10006F00FAE493A3F8E493A3C8C582C8CAC583CAA8
:10007F00F0A3C8C582C8CAC583CADFE9DEE780BE60
:01018E000070
:00000001FF
