:01014100229B
:1000B80075A0FEE4F508AFA07801EF08800103D829
:1000C800FDF5A07FF47E011200FC0508E508C39445
:0400D8000840E322D7
:10000300D295D294C29320950C7F647E001200FC9B
:10001300209502B2A020940C7F647E001200FC2085
:100023009402B2A2D293C29220950C7F647E0012F6
:1000330000FC209502B2A120940C7F647E00120084
:09004300FC209402B2A3D2922227
:100083008F09C2A6C2A58509807F017E001200DC0C
:10009300D2A77F057E001200DCC2A7E509C454F095
:1000A300F5807F017E001200DCD2A77F057E00125F
:0500B30000DCC2A722E1
:10004C008F0AC2A7D2A6C2A5850A807F017E0012A4
:10005C0000DCD2A77F057E001200DCC2A7E50AC433
:10006C0054F0F5807F017E001200DCD2A77F057E64
:07007C00001200DCC2A72204
:10011C007F321200837F281200837F0C1200837FB2
:09012C00061200837F010200832A
:1000DC00E4FDFCC3ED9FEC9E5015E4FAFB0BBB005A
:0F00EC00010AEB647B4A70F50DBD00010C80E446
:0100FB0022E2
:1000FC00E4FDFCC3ED9FEC9E5015E4FAFB0BBB003A
:0F010C00010AEB647B4A70F50DBD00010C80E425
:01011B0022C1
:03000000020135C5
:0C013500787FE4F6D8FD75810A020141D4
:00000001FF
