:0800AF001200B712006380F893
:03000300020006F2
:10000600C0E0C0F0C083C082C0D075D000C000C0C0
:1000160001C002C003C004C005C006C00720B2224A
:100026007F647E0012008320B218750A00B2A07F9A
:100036002C7E01120083050AE50AC3941440EE756E
:100046000A00D007D006D005D004D003D002D001D4
:0D005600D000D0D0D082D083D0F0D0E032E6
:10006300E4F508F509B2A07FE87E031200830509D1
:10007300E50970020508C3940AE508940040E622E6
:0700B700D288D2A8D2AF22CB
:10008300E4FDFCC3ED9FEC9E5015E4FAFB0BBB00B3
:0F009300010AEB647B4A70F50DBD00010C80E49F
:0100A200223B
:030000000200A358
:0C00A300787FE4F6D8FD75810A0200AFFA
:00000001FF
