:0B014F0012013F12011112009A80F80B
:10012C00100A3F065B4F666D7D077F6F777C395EEB
:02013C007971D7
:10009A00E4F51AE51A14600704700AD2A28002C2B3
:1000AA00A2D2A3D2A47408251AF8E6F5807F017EAD
:1000BA00001200F1E4F580051AE51AC3940240D350
:0100CA002213
:10011100E51C75F00A84240AF8E6F508E51C75F07B
:0B0121000A84740A25F0F8E6F50922B4
:03000B000200CB25
:1000CB00C0E0C0D0758CD8758AF0051BE51BC394B6
:1000DB0064400E751B00051CE51C943C4003751C0D
:0600EB0000D0D0D0E0328D
:1000F100E4FDFCC3ED9FEC9E5015E4FAFB0BBB0045
:0F010100010AEB647B4A70F50DBD00010C80E430
:0101100022CC
:10013F00438901758CD8758AF0D2A9D2AFD28C229F
:0300000002000EED
:0C000E00787FE4F6D8FD75811C020055D7
:10001A0002014FE493A3F8E493A34003F68001F2AC
:10002A0008DFF48029E493A3F85407240CC8C333E7
:10003A00C4540F4420C8834004F456800146F6DFB6
:10004A00E4800B010204081020408090012CE47E19
:10005A00019360BCA3FF543F30E509541FFEE493AB
:10006A00A360010ECF54C025E060A840B8E493A372
:10007A00FAE493A3F8E493A3C8C582C8CAC583CA9D
:10008A00F0A3C8C582C8CAC583CADFE9DEE780BE55
:01013E0000C0
:00000001FF
