:100104000808000C5464DF44440008107FBFDFEF8C
:04011400F7FBFDFEFA
:10008F0075807FE4F51874102518F8E6F58074086C
:10009F002518F8E6FF1200BE7F017E001200E4E48F
:0F00AF00FF1200BE0518E518C3940840D980D190
:1000BE00D2B6D2B5E4FEEFC4131313540124FF924B
:1000CE00B4EF25E0FFC2B60000D2B60EBE08E7C2FE
:0500DE00B50000D2B5E1
:0100E30022FA
:1000E400E4FDFCC3ED9FEC9E5015E4FAFB0BBB0052
:0F00F400010AEB647B4A70F50DBD00010C80E43E
:0101030022D9
:03000000020003F8
:0C000300787FE4F6D8FD75811802004AF1
:10000F0002008FE493A3F8E493A34003F68001F278
:10001F0008DFF48029E493A3F85407240CC8C333F2
:10002F00C4540F4420C8834004F456800146F6DFC1
:10003F00E4800B0102040810204080900104E47E4C
:10004F00019360BCA3FF543F30E509541FFEE493B6
:10005F00A360010ECF54C025E060A840B8E493A37D
:10006F00FAE493A3F8E493A3C8C582C8CAC583CAA8
:10007F00F0A3C8C582C8CAC583CADFE9DEE780BE60
:0101180000E6
:00000001FF
