:0500C3001200AF80FBFC
:10008F00E4FDFCC3ED9FEC9E5015E4FAFB0BBB00A7
:0F009F00010AEB647B4A70F50DBD00010C80E493
:0100AE00222F
:0900B900070807065B7D4F6D6628
:0900AF00C2A2C2A3C2A48508800C
:0100B8002225
:03000000020003F8
:0C000300787FE4F6D8FD75810F02004AFA
:10000F000200C3E493A3F8E493A34003F68001F244
:10001F0008DFF48029E493A3F85407240CC8C333F2
:10002F00C4540F4420C8834004F456800146F6DFC1
:10003F00E4800B01020408102040809000B9E47E98
:10004F00019360BCA3FF543F30E509541FFEE493B6
:10005F00A360010ECF54C025E060A840B8E493A37D
:10006F00FAE493A3F8E493A3C8C582C8CAC583CAA8
:10007F00F0A3C8C582C8CAC583CADFE9DEE780BE60
:0100C200003D
:00000001FF
